{"src/SpendLimitPlugin.sol":{"SpendLimitPlugin":{"abi":[{"inputs":[],"name":"InvalidProof","type":"error"},{"inputs":[{"internalType":"address","name":"sender","type":"address"}],"name":"InvalidRelayer","type":"error"},{"anonymous":false,"inputs":[{"indexed":true,"internalType":"address","name":"relayer","type":"address"}],"name":"ProofVerified","type":"event"},{"inputs":[],"name":"config","outputs":[{"internalType":"uint256","name":"spendLimit","type":"uint256"},{"internalType":"address","name":"relayerAddress","type":"address"},{"internalType":"address","name":"recoveryAddress","type":"address"}],"stateMutability":"view","type":"function"},{"inputs":[{"internalType":"bytes","name":"","type":"bytes"},{"internalType":"uint256[2]","name":"pA","type":"uint256[2]"},{"internalType":"uint256[2][2]","name":"pB","type":"uint256[2][2]"},{"internalType":"uint256[2]","name":"pC","type":"uint256[2]"},{"internalType":"uint256[]","name":"publicInputs","type":"uint256[]"}],"name":"executeWithProof","outputs":[],"stateMutability":"nonpayable","type":"function"},{"inputs":[{"components":[{"internalType":"uint256","name":"spendLimit","type":"uint256"},{"internalType":"address","name":"relayerAddress","type":"address"},{"internalType":"address","name":"recoveryAddress","type":"address"}],"internalType":"struct SpendLimitPlugin.Config","name":"cfg","type":"tuple"}],"name":"setConfig","outputs":[],"stateMutability":"nonpayable","type":"function"},{"inputs":[{"internalType":"uint256[2]","name":"_pA","type":"uint256[2]"},{"internalType":"uint256[2][2]","name":"_pB","type":"uint256[2][2]"},{"internalType":"uint256[2]","name":"_pC","type":"uint256[2]"},{"internalType":"uint256[]","name":"_pubSignals","type":"uint256[]"}],"name":"verifyProof","outputs":[{"internalType":"bool","name":"","type":"bool"}],"stateMutability":"view","type":"function"}],"evm":{"bytecode":{"linkReferences":{},"object":"608060405234801561001057600080fd5b5061084f806100206000396000f3fe608060405234801561001057600080fd5b506004361061004c5760003560e01c806379502c55146100515780637cbb497c14610099578063b8173a49146100ae578063c32e370e146100c1575b600080fd5b60005460015460025461006f92916001600160a01b03908116911683565b604080519384526001600160a01b0392831660208501529116908201526060015b60405180910390f35b6100ac6100a7366004610538565b6100e4565b005b6100ac6100bc3660046105c4565b6100f6565b6100d46100cf3660046106af565b6101dc565b6040519015158152602001610090565b8060006100f182826107e1565b505050565b6001546001600160a01b031633146101285760405163b06da3a760e01b81523360048201526024015b60405180910390fd5b80156101765760405162461bcd60e51b815260206004820152601860248201527f756e6578706563746564207075626c696320696e707574730000000000000000604482015260640161011f565b60606000610186878787856101dc565b9050806101a6576040516309bde33960e01b815260040160405180910390fd5b60405133907f9cbb2c694eed9687ad9654ae462269807cc8b44f6dbd076f296bd916f1f3d0cd90600090a2505050505050505050565b6000610515565b600060808501600086017f0ecbe51786a6c38279e2d067c05bf4cad9c6e7b291fd14d9bc7cd0e17ad8a43d81527f2d9dfba5a5fb721ce37372e8f11f6d52c9726fed9f3f01784b0c780ed8d6a741602082015250823581527f30644e72e131a029b85045b68181585d97816a916871ca8d3c208c16d87cfd4760208401357f30644e72e131a029b85045b68181585d97816a916871ca8d3c208c16d87cfd4703066020820152833560408201526020840135606082015260408401356080820152606084013560a08201527f08e119af80d07e78f229c4dc0931751c19b84ca1e7ef890da9a28e381639b7d560c08201527f030eb4249e4c2d9f98a7792dbd14133b2315f5fda11dcdf371e0fb0d579a90ee60e08201527f0e46cca6a557f590f5244075008c9aa41a1fb877a11fe27afa908d1386d4f6896101008201527f2f45eb36f5f2bc30fac387659083675bd1b8138e1ef6007ff0563bf42494bc036101208201527f2704e1256ba05904f4291b80d2603d7d1de0ef690d5e374fc04523c466c960736101408201527f26b72f85123d953c8c5bb547a9b2494abb1a798845eafd90338107d53d895423610160820152600086015161018082015260206000018601516101a08201527f198e9393920d483a7260bfb731fb5d25f1aa493335a9e71297e485b7aef312c26101c08201527f1800deef121f1e76426a00665e5c4479674322d4f75edadd46debd5cd992f6ed6101e08201527f090689d0585ff075ec9e99ad690c3395bc4b313370b38ef355acdadcd122975b6102008201527f12c85ea5db8c6deb4aab71808dcb408fe3d1e7690c43d37b4ce6cc0166fa7daa610220820152843561024082015260208501356102608201527f2a1046cf456b267caef69bb0caae31469f800f95e8a9902677048c8f040146ea6102808201527f0707d96a2835ec1c531a9af25be58ac995568378053cef7f9b7416e45d87f4b96102a08201527f1fdd91fe4a9d1be39de33fda7b8332fa459a55e67283de7da1c287074fd11a876102c08201527f05c26df44da4196aeaa9731e45dd0ac37b25684c0d8d8fa985e474a123086c8f6102e08201526020816103008360086107d05a03fa90511695945050505050565b604051610380810160405261052c818587896101e3565b90508060005260206000f35b60006060828403121561054a57600080fd5b50919050565b806040810183101561056157600080fd5b92915050565b806080810183101561056157600080fd5b60008083601f84011261058a57600080fd5b50813567ffffffffffffffff8111156105a257600080fd5b6020830191508360208260051b85010111156105bd57600080fd5b9250929050565b6000806000806000806000610140888a0312156105e057600080fd5b873567ffffffffffffffff808211156105f857600080fd5b818a0191508a601f83011261060c57600080fd5b81358181111561061b57600080fd5b8b602082850101111561062d57600080fd5b602083019950809850506106448b60208c01610550565b96506106538b60608c01610567565b95506106628b60e08c01610550565b94506101208a013591508082111561067957600080fd5b506106868a828b01610578565b989b979a50959850939692959293505050565b634e487b7160e01b600052604160045260246000fd5b60008060008061012085870312156106c657600080fd5b6106d08686610550565b93506106df8660408701610567565b92506106ee8660c08701610550565b915061010085013567ffffffffffffffff8082111561070c57600080fd5b818701915087601f83011261072057600080fd5b813560208282111561073457610734610699565b8160051b604051601f19603f8301168101818110868211171561075957610759610699565b6040529283526020808401945085820101928b84111561077857600080fd5b6020860195505b838610156107985785358552948201949382019361077f565b989b979a50959850505050505050565b600081356001600160a01b038116811461056157600080fd5b80546001600160a01b0319166001600160a01b0392909216919091179055565b813581556107fd6107f4602084016107a8565b600183016107c1565b61081561080c604084016107a8565b600283016107c1565b505056fea264697066735822122086b0b825b3daa0bbdcef0e512864a319f2559ceba9d77d1f204bf23cb1dbfcac64736f6c63430008180033","opcodes":"PUSH1 0x80 PUSH1 0x40 MSTORE CALLVALUE DUP1 ISZERO PUSH2 0x10 JUMPI PUSH1 0x0 DUP1 REVERT JUMPDEST POP PUSH2 0x84F DUP1 PUSH2 0x20 PUSH1 0x0 CODECOPY PUSH1 0x0 RETURN INVALID PUSH1 0x80 PUSH1 0x40 MSTORE CALLVALUE DUP1 ISZERO PUSH2 0x10 JUMPI PUSH1 0x0 DUP1 REVERT JUMPDEST POP PUSH1 0x4 CALLDATASIZE LT PUSH2 0x4C JUMPI PUSH1 0x0 CALLDATALOAD PUSH1 0xE0 SHR DUP1 PUSH4 0x79502C55 EQ PUSH2 0x51 JUMPI DUP1 PUSH4 0x7CBB497C EQ PUSH2 0x99 JUMPI DUP1 PUSH4 0xB8173A49 EQ PUSH2 0xAE JUMPI DUP1 PUSH4 0xC32E370E EQ PUSH2 0xC1 JUMPI JUMPDEST PUSH1 0x0 DUP1 REVERT JUMPDEST PUSH1 0x0 SLOAD PUSH1 0x1 SLOAD PUSH1 0x2 SLOAD PUSH2 0x6F SWAP3 SWAP2 PUSH1 0x1 PUSH1 0x1 PUSH1 0xA0 SHL SUB SWAP1 DUP2 AND SWAP2 AND DUP4 JUMP JUMPDEST PUSH1 0x40 DUP1 MLOAD SWAP4 DUP5 MSTORE PUSH1 0x1 PUSH1 0x1 PUSH1 0xA0 SHL SUB SWAP3 DUP4 AND PUSH1 0x20 DUP6 ADD MSTORE SWAP2 AND SWAP1 DUP3 ADD MSTORE PUSH1 0x60 ADD JUMPDEST PUSH1 0x40 MLOAD DUP1 SWAP2 SUB SWAP1 RETURN JUMPDEST PUSH2 0xAC PUSH2 0xA7 CALLDATASIZE PUSH1 0x4 PUSH2 0x538 JUMP JUMPDEST PUSH2 0xE4 JUMP JUMPDEST STOP JUMPDEST PUSH2 0xAC PUSH2 0xBC CALLDATASIZE PUSH1 0x4 PUSH2 0x5C4 JUMP JUMPDEST PUSH2 0xF6 JUMP JUMPDEST PUSH2 0xD4 PUSH2 0xCF CALLDATASIZE PUSH1 0x4 PUSH2 0x6AF JUMP JUMPDEST PUSH2 0x1DC JUMP JUMPDEST PUSH1 0x40 MLOAD SWAP1 ISZERO ISZERO DUP2 MSTORE PUSH1 0x20 ADD PUSH2 0x90 JUMP JUMPDEST DUP1 PUSH1 0x0 PUSH2 0xF1 DUP3 DUP3 PUSH2 0x7E1 JUMP JUMPDEST POP POP POP JUMP JUMPDEST PUSH1 0x1 SLOAD PUSH1 0x1 PUSH1 0x1 PUSH1 0xA0 SHL SUB AND CALLER EQ PUSH2 0x128 JUMPI PUSH1 0x40 MLOAD PUSH4 0xB06DA3A7 PUSH1 0xE0 SHL DUP2 MSTORE CALLER PUSH1 0x4 DUP3 ADD MSTORE PUSH1 0x24 ADD JUMPDEST PUSH1 0x40 MLOAD DUP1 SWAP2 SUB SWAP1 REVERT JUMPDEST DUP1 ISZERO PUSH2 0x176 JUMPI PUSH1 0x40 MLOAD PUSH3 0x461BCD PUSH1 0xE5 SHL DUP2 MSTORE PUSH1 0x20 PUSH1 0x4 DUP3 ADD MSTORE PUSH1 0x18 PUSH1 0x24 DUP3 ADD MSTORE PUSH32 0x756E6578706563746564207075626C696320696E707574730000000000000000 PUSH1 0x44 DUP3 ADD MSTORE PUSH1 0x64 ADD PUSH2 0x11F JUMP JUMPDEST PUSH1 0x60 PUSH1 0x0 PUSH2 0x186 DUP8 DUP8 DUP8 DUP6 PUSH2 0x1DC JUMP JUMPDEST SWAP1 POP DUP1 PUSH2 0x1A6 JUMPI PUSH1 0x40 MLOAD PUSH4 0x9BDE339 PUSH1 0xE0 SHL DUP2 MSTORE PUSH1 0x4 ADD PUSH1 0x40 MLOAD DUP1 SWAP2 SUB SWAP1 REVERT JUMPDEST PUSH1 0x40 MLOAD CALLER SWAP1 PUSH32 0x9CBB2C694EED9687AD9654AE462269807CC8B44F6DBD076F296BD916F1F3D0CD SWAP1 PUSH1 0x0 SWAP1 LOG2 POP POP POP POP POP POP POP POP POP JUMP JUMPDEST PUSH1 0x0 PUSH2 0x515 JUMP JUMPDEST PUSH1 0x0 PUSH1 0x80 DUP6 ADD PUSH1 0x0 DUP7 ADD PUSH32 0xECBE51786A6C38279E2D067C05BF4CAD9C6E7B291FD14D9BC7CD0E17AD8A43D DUP2 MSTORE PUSH32 0x2D9DFBA5A5FB721CE37372E8F11F6D52C9726FED9F3F01784B0C780ED8D6A741 PUSH1 0x20 DUP3 ADD MSTORE POP DUP3 CALLDATALOAD DUP2 MSTORE PUSH32 0x30644E72E131A029B85045B68181585D97816A916871CA8D3C208C16D87CFD47 PUSH1 0x20 DUP5 ADD CALLDATALOAD PUSH32 0x30644E72E131A029B85045B68181585D97816A916871CA8D3C208C16D87CFD47 SUB MOD PUSH1 0x20 DUP3 ADD MSTORE DUP4 CALLDATALOAD PUSH1 0x40 DUP3 ADD MSTORE PUSH1 0x20 DUP5 ADD CALLDATALOAD PUSH1 0x60 DUP3 ADD MSTORE PUSH1 0x40 DUP5 ADD CALLDATALOAD PUSH1 0x80 DUP3 ADD MSTORE PUSH1 0x60 DUP5 ADD CALLDATALOAD PUSH1 0xA0 DUP3 ADD MSTORE PUSH32 0x8E119AF80D07E78F229C4DC0931751C19B84CA1E7EF890DA9A28E381639B7D5 PUSH1 0xC0 DUP3 ADD MSTORE PUSH32 0x30EB4249E4C2D9F98A7792DBD14133B2315F5FDA11DCDF371E0FB0D579A90EE PUSH1 0xE0 DUP3 ADD MSTORE PUSH32 0xE46CCA6A557F590F5244075008C9AA41A1FB877A11FE27AFA908D1386D4F689 PUSH2 0x100 DUP3 ADD MSTORE PUSH32 0x2F45EB36F5F2BC30FAC387659083675BD1B8138E1EF6007FF0563BF42494BC03 PUSH2 0x120 DUP3 ADD MSTORE PUSH32 0x2704E1256BA05904F4291B80D2603D7D1DE0EF690D5E374FC04523C466C96073 PUSH2 0x140 DUP3 ADD MSTORE PUSH32 0x26B72F85123D953C8C5BB547A9B2494ABB1A798845EAFD90338107D53D895423 PUSH2 0x160 DUP3 ADD MSTORE PUSH1 0x0 DUP7 ADD MLOAD PUSH2 0x180 DUP3 ADD MSTORE PUSH1 0x20 PUSH1 0x0 ADD DUP7 ADD MLOAD PUSH2 0x1A0 DUP3 ADD MSTORE PUSH32 0x198E9393920D483A7260BFB731FB5D25F1AA493335A9E71297E485B7AEF312C2 PUSH2 0x1C0 DUP3 ADD MSTORE PUSH32 0x1800DEEF121F1E76426A00665E5C4479674322D4F75EDADD46DEBD5CD992F6ED PUSH2 0x1E0 DUP3 ADD MSTORE PUSH32 0x90689D0585FF075EC9E99AD690C3395BC4B313370B38EF355ACDADCD122975B PUSH2 0x200 DUP3 ADD MSTORE PUSH32 0x12C85EA5DB8C6DEB4AAB71808DCB408FE3D1E7690C43D37B4CE6CC0166FA7DAA PUSH2 0x220 DUP3 ADD MSTORE DUP5 CALLDATALOAD PUSH2 0x240 DUP3 ADD MSTORE PUSH1 0x20 DUP6 ADD CALLDATALOAD PUSH2 0x260 DUP3 ADD MSTORE PUSH32 0x2A1046CF456B267CAEF69BB0CAAE31469F800F95E8A9902677048C8F040146EA PUSH2 0x280 DUP3 ADD MSTORE PUSH32 0x707D96A2835EC1C531A9AF25BE58AC995568378053CEF7F9B7416E45D87F4B9 PUSH2 0x2A0 DUP3 ADD MSTORE PUSH32 0x1FDD91FE4A9D1BE39DE33FDA7B8332FA459A55E67283DE7DA1C287074FD11A87 PUSH2 0x2C0 DUP3 ADD MSTORE PUSH32 0x5C26DF44DA4196AEAA9731E45DD0AC37B25684C0D8D8FA985E474A123086C8F PUSH2 0x2E0 DUP3 ADD MSTORE PUSH1 0x20 DUP2 PUSH2 0x300 DUP4 PUSH1 0x8 PUSH2 0x7D0 GAS SUB STATICCALL SWAP1 MLOAD AND SWAP6 SWAP5 POP POP POP POP POP JUMP JUMPDEST PUSH1 0x40 MLOAD PUSH2 0x380 DUP2 ADD PUSH1 0x40 MSTORE PUSH2 0x52C DUP2 DUP6 DUP8 DUP10 PUSH2 0x1E3 JUMP JUMPDEST SWAP1 POP DUP1 PUSH1 0x0 MSTORE PUSH1 0x20 PUSH1 0x0 RETURN JUMPDEST PUSH1 0x0 PUSH1 0x60 DUP3 DUP5 SUB SLT ISZERO PUSH2 0x54A JUMPI PUSH1 0x0 DUP1 REVERT JUMPDEST POP SWAP2 SWAP1 POP JUMP JUMPDEST DUP1 PUSH1 0x40 DUP2 ADD DUP4 LT ISZERO PUSH2 0x561 JUMPI PUSH1 0x0 DUP1 REVERT JUMPDEST SWAP3 SWAP2 POP POP JUMP JUMPDEST DUP1 PUSH1 0x80 DUP2 ADD DUP4 LT ISZERO PUSH2 0x561 JUMPI PUSH1 0x0 DUP1 REVERT JUMPDEST PUSH1 0x0 DUP1 DUP4 PUSH1 0x1F DUP5 ADD SLT PUSH2 0x58A JUMPI PUSH1 0x0 DUP1 REVERT JUMPDEST POP DUP2 CALLDATALOAD PUSH8 0xFFFFFFFFFFFFFFFF DUP2 GT ISZERO PUSH2 0x5A2 JUMPI PUSH1 0x0 DUP1 REVERT JUMPDEST PUSH1 0x20 DUP4 ADD SWAP2 POP DUP4 PUSH1 0x20 DUP3 PUSH1 0x5 SHL DUP6 ADD ADD GT ISZERO PUSH2 0x5BD JUMPI PUSH1 0x0 DUP1 REVERT JUMPDEST SWAP3 POP SWAP3 SWAP1 POP JUMP JUMPDEST PUSH1 0x0 DUP1 PUSH1 0x0 DUP1 PUSH1 0x0 DUP1 PUSH1 0x0 PUSH2 0x140 DUP9 DUP11 SUB SLT ISZERO PUSH2 0x5E0 JUMPI PUSH1 0x0 DUP1 REVERT JUMPDEST DUP8 CALLDATALOAD PUSH8 0xFFFFFFFFFFFFFFFF DUP1 DUP3 GT ISZERO PUSH2 0x5F8 JUMPI PUSH1 0x0 DUP1 REVERT JUMPDEST DUP2 DUP11 ADD SWAP2 POP DUP11 PUSH1 0x1F DUP4 ADD SLT PUSH2 0x60C JUMPI PUSH1 0x0 DUP1 REVERT JUMPDEST DUP2 CALLDATALOAD DUP2 DUP2 GT ISZERO PUSH2 0x61B JUMPI PUSH1 0x0 DUP1 REVERT JUMPDEST DUP12 PUSH1 0x20 DUP3 DUP6 ADD ADD GT ISZERO PUSH2 0x62D JUMPI PUSH1 0x0 DUP1 REVERT JUMPDEST PUSH1 0x20 DUP4 ADD SWAP10 POP DUP1 SWAP9 POP POP PUSH2 0x644 DUP12 PUSH1 0x20 DUP13 ADD PUSH2 0x550 JUMP JUMPDEST SWAP7 POP PUSH2 0x653 DUP12 PUSH1 0x60 DUP13 ADD PUSH2 0x567 JUMP JUMPDEST SWAP6 POP PUSH2 0x662 DUP12 PUSH1 0xE0 DUP13 ADD PUSH2 0x550 JUMP JUMPDEST SWAP5 POP PUSH2 0x120 DUP11 ADD CALLDATALOAD SWAP2 POP DUP1 DUP3 GT ISZERO PUSH2 0x679 JUMPI PUSH1 0x0 DUP1 REVERT JUMPDEST POP PUSH2 0x686 DUP11 DUP3 DUP12 ADD PUSH2 0x578 JUMP JUMPDEST SWAP9 SWAP12 SWAP8 SWAP11 POP SWAP6 SWAP9 POP SWAP4 SWAP7 SWAP3 SWAP6 SWAP3 SWAP4 POP POP POP JUMP JUMPDEST PUSH4 0x4E487B71 PUSH1 0xE0 SHL PUSH1 0x0 MSTORE PUSH1 0x41 PUSH1 0x4 MSTORE PUSH1 0x24 PUSH1 0x0 REVERT JUMPDEST PUSH1 0x0 DUP1 PUSH1 0x0 DUP1 PUSH2 0x120 DUP6 DUP8 SUB SLT ISZERO PUSH2 0x6C6 JUMPI PUSH1 0x0 DUP1 REVERT JUMPDEST PUSH2 0x6D0 DUP7 DUP7 PUSH2 0x550 JUMP JUMPDEST SWAP4 POP PUSH2 0x6DF DUP7 PUSH1 0x40 DUP8 ADD PUSH2 0x567 JUMP JUMPDEST SWAP3 POP PUSH2 0x6EE DUP7 PUSH1 0xC0 DUP8 ADD PUSH2 0x550 JUMP JUMPDEST SWAP2 POP PUSH2 0x100 DUP6 ADD CALLDATALOAD PUSH8 0xFFFFFFFFFFFFFFFF DUP1 DUP3 GT ISZERO PUSH2 0x70C JUMPI PUSH1 0x0 DUP1 REVERT JUMPDEST DUP2 DUP8 ADD SWAP2 POP DUP8 PUSH1 0x1F DUP4 ADD SLT PUSH2 0x720 JUMPI PUSH1 0x0 DUP1 REVERT JUMPDEST DUP2 CALLDATALOAD PUSH1 0x20 DUP3 DUP3 GT ISZERO PUSH2 0x734 JUMPI PUSH2 0x734 PUSH2 0x699 JUMP JUMPDEST DUP2 PUSH1 0x5 SHL PUSH1 0x40 MLOAD PUSH1 0x1F NOT PUSH1 0x3F DUP4 ADD AND DUP2 ADD DUP2 DUP2 LT DUP7 DUP3 GT OR ISZERO PUSH2 0x759 JUMPI PUSH2 0x759 PUSH2 0x699 JUMP JUMPDEST PUSH1 0x40 MSTORE SWAP3 DUP4 MSTORE PUSH1 0x20 DUP1 DUP5 ADD SWAP5 POP DUP6 DUP3 ADD ADD SWAP3 DUP12 DUP5 GT ISZERO PUSH2 0x778 JUMPI PUSH1 0x0 DUP1 REVERT JUMPDEST PUSH1 0x20 DUP7 ADD SWAP6 POP JUMPDEST DUP4 DUP7 LT ISZERO PUSH2 0x798 JUMPI DUP6 CALLDATALOAD DUP6 MSTORE SWAP5 DUP3 ADD SWAP5 SWAP4 DUP3 ADD SWAP4 PUSH2 0x77F JUMP JUMPDEST SWAP9 SWAP12 SWAP8 SWAP11 POP SWAP6 SWAP9 POP POP POP POP POP POP POP JUMP JUMPDEST PUSH1 0x0 DUP2 CALLDATALOAD PUSH1 0x1 PUSH1 0x1 PUSH1 0xA0 SHL SUB DUP2 AND DUP2 EQ PUSH2 0x561 JUMPI PUSH1 0x0 DUP1 REVERT JUMPDEST DUP1 SLOAD PUSH1 0x1 PUSH1 0x1 PUSH1 0xA0 SHL SUB NOT AND PUSH1 0x1 PUSH1 0x1 PUSH1 0xA0 SHL SUB SWAP3 SWAP1 SWAP3 AND SWAP2 SWAP1 SWAP2 OR SWAP1 SSTORE JUMP JUMPDEST DUP2 CALLDATALOAD DUP2 SSTORE PUSH2 0x7FD PUSH2 0x7F4 PUSH1 0x20 DUP5 ADD PUSH2 0x7A8 JUMP JUMPDEST PUSH1 0x1 DUP4 ADD PUSH2 0x7C1 JUMP JUMPDEST PUSH2 0x815 PUSH2 0x80C PUSH1 0x40 DUP5 ADD PUSH2 0x7A8 JUMP JUMPDEST PUSH1 0x2 DUP4 ADD PUSH2 0x7C1 JUMP JUMPDEST POP POP JUMP INVALID LOG2 PUSH5 0x6970667358 0x22 SLT KECCAK256 DUP7 0xB0 0xB8 0x25 0xB3 0xDA LOG0 0xBB 0xDC 0xEF 0xE MLOAD 0x28 PUSH5 0xA319F2559C 0xEB 0xA9 0xD7 PUSH30 0x1F204BF23CB1DBFCAC64736F6C6343000818003300000000000000000000 "},"methodIdentifiers":{"config()":"79502c55","executeWithProof(bytes,uint256[2],uint256[2][2],uint256[2],uint256[])":"b8173a49","setConfig((uint256,address,address))":"7cbb497c","verifyProof(uint256[2],uint256[2][2],uint256[2],uint256[])":"c32e370e"}}}}}