{"Verifier.sol":{"Groth16Verifier":{"abi":[{"inputs":[{"internalType":"uint256[2]","name":"_pA","type":"uint256[2]"},{"internalType":"uint256[2][2]","name":"_pB","type":"uint256[2][2]"},{"internalType":"uint256[2]","name":"_pC","type":"uint256[2]"},{"internalType":"uint256[]","name":"_pubSignals","type":"uint256[]"}],"name":"verifyProof","outputs":[{"internalType":"bool","name":"","type":"bool"}],"stateMutability":"view","type":"function"}],"evm":{"bytecode":{"linkReferences":{},"object":"608060405234801561001057600080fd5b50610515806100206000396000f3fe608060405234801561001057600080fd5b506004361061002b5760003560e01c8063c32e370e14610030575b600080fd5b61004361003e3660046103e0565b610057565b604051901515815260200160405180910390f35b6000610390565b600060808501600086017f0ecbe51786a6c38279e2d067c05bf4cad9c6e7b291fd14d9bc7cd0e17ad8a43d81527f2d9dfba5a5fb721ce37372e8f11f6d52c9726fed9f3f01784b0c780ed8d6a741602082015250823581527f30644e72e131a029b85045b68181585d97816a916871ca8d3c208c16d87cfd4760208401357f30644e72e131a029b85045b68181585d97816a916871ca8d3c208c16d87cfd4703066020820152833560408201526020840135606082015260408401356080820152606084013560a08201527f08e119af80d07e78f229c4dc0931751c19b84ca1e7ef890da9a28e381639b7d560c08201527f030eb4249e4c2d9f98a7792dbd14133b2315f5fda11dcdf371e0fb0d579a90ee60e08201527f0e46cca6a557f590f5244075008c9aa41a1fb877a11fe27afa908d1386d4f6896101008201527f2f45eb36f5f2bc30fac387659083675bd1b8138e1ef6007ff0563bf42494bc036101208201527f2704e1256ba05904f4291b80d2603d7d1de0ef690d5e374fc04523c466c960736101408201527f26b72f85123d953c8c5bb547a9b2494abb1a798845eafd90338107d53d895423610160820152600086015161018082015260206000018601516101a08201527f198e9393920d483a7260bfb731fb5d25f1aa493335a9e71297e485b7aef312c26101c08201527f1800deef121f1e76426a00665e5c4479674322d4f75edadd46debd5cd992f6ed6101e08201527f090689d0585ff075ec9e99ad690c3395bc4b313370b38ef355acdadcd122975b6102008201527f12c85ea5db8c6deb4aab71808dcb408fe3d1e7690c43d37b4ce6cc0166fa7daa610220820152843561024082015260208501356102608201527f2a1046cf456b267caef69bb0caae31469f800f95e8a9902677048c8f040146ea6102808201527f0707d96a2835ec1c531a9af25be58ac995568378053cef7f9b7416e45d87f4b96102a08201527f1fdd91fe4a9d1be39de33fda7b8332fa459a55e67283de7da1c287074fd11a876102c08201527f05c26df44da4196aeaa9731e45dd0ac37b25684c0d8d8fa985e474a123086c8f6102e08201526020816103008360086107d05a03fa90511695945050505050565b60405161038081016040526103a78185878961005e565b90508060005260206000f35b80604081018310156103c457600080fd5b92915050565b634e487b7160e01b600052604160045260246000fd5b60008060008061012085870312156103f757600080fd5b61040186866103b3565b935060c085018681111561041457600080fd5b60408601935061042487826103b3565b92505061010085013567ffffffffffffffff8082111561044357600080fd5b818701915087601f83011261045757600080fd5b813560208282111561046b5761046b6103ca565b8160051b604051601f19603f83011681018181108682111715610490576104906103ca565b6040529283526020808401945085820101928b8411156104af57600080fd5b6020860195505b838610156104cf578535855294820194938201936104b6565b989b979a5095985050505050505056fea26469706673582212202f5a7f0e3d047307b4a1ed34a80df865a906e54d6f4b4d3645dd0ec68222902f64736f6c63430008180033","opcodes":"PUSH1 0x80 PUSH1 0x40 MSTORE CALLVALUE DUP1 ISZERO PUSH2 0x10 JUMPI PUSH1 0x0 DUP1 REVERT JUMPDEST POP PUSH2 0x515 DUP1 PUSH2 0x20 PUSH1 0x0 CODECOPY PUSH1 0x0 RETURN INVALID PUSH1 0x80 PUSH1 0x40 MSTORE CALLVALUE DUP1 ISZERO PUSH2 0x10 JUMPI PUSH1 0x0 DUP1 REVERT JUMPDEST POP PUSH1 0x4 CALLDATASIZE LT PUSH2 0x2B JUMPI PUSH1 0x0 CALLDATALOAD PUSH1 0xE0 SHR DUP1 PUSH4 0xC32E370E EQ PUSH2 0x30 JUMPI JUMPDEST PUSH1 0x0 DUP1 REVERT JUMPDEST PUSH2 0x43 PUSH2 0x3E CALLDATASIZE PUSH1 0x4 PUSH2 0x3E0 JUMP JUMPDEST PUSH2 0x57 JUMP JUMPDEST PUSH1 0x40 MLOAD SWAP1 ISZERO ISZERO DUP2 MSTORE PUSH1 0x20 ADD PUSH1 0x40 MLOAD DUP1 SWAP2 SUB SWAP1 RETURN JUMPDEST PUSH1 0x0 PUSH2 0x390 JUMP JUMPDEST PUSH1 0x0 PUSH1 0x80 DUP6 ADD PUSH1 0x0 DUP7 ADD PUSH32 0xECBE51786A6C38279E2D067C05BF4CAD9C6E7B291FD14D9BC7CD0E17AD8A43D DUP2 MSTORE PUSH32 0x2D9DFBA5A5FB721CE37372E8F11F6D52C9726FED9F3F01784B0C780ED8D6A741 PUSH1 0x20 DUP3 ADD MSTORE POP DUP3 CALLDATALOAD DUP2 MSTORE PUSH32 0x30644E72E131A029B85045B68181585D97816A916871CA8D3C208C16D87CFD47 PUSH1 0x20 DUP5 ADD CALLDATALOAD PUSH32 0x30644E72E131A029B85045B68181585D97816A916871CA8D3C208C16D87CFD47 SUB MOD PUSH1 0x20 DUP3 ADD MSTORE DUP4 CALLDATALOAD PUSH1 0x40 DUP3 ADD MSTORE PUSH1 0x20 DUP5 ADD CALLDATALOAD PUSH1 0x60 DUP3 ADD MSTORE PUSH1 0x40 DUP5 ADD CALLDATALOAD PUSH1 0x80 DUP3 ADD MSTORE PUSH1 0x60 DUP5 ADD CALLDATALOAD PUSH1 0xA0 DUP3 ADD MSTORE PUSH32 0x8E119AF80D07E78F229C4DC0931751C19B84CA1E7EF890DA9A28E381639B7D5 PUSH1 0xC0 DUP3 ADD MSTORE PUSH32 0x30EB4249E4C2D9F98A7792DBD14133B2315F5FDA11DCDF371E0FB0D579A90EE PUSH1 0xE0 DUP3 ADD MSTORE PUSH32 0xE46CCA6A557F590F5244075008C9AA41A1FB877A11FE27AFA908D1386D4F689 PUSH2 0x100 DUP3 ADD MSTORE PUSH32 0x2F45EB36F5F2BC30FAC387659083675BD1B8138E1EF6007FF0563BF42494BC03 PUSH2 0x120 DUP3 ADD MSTORE PUSH32 0x2704E1256BA05904F4291B80D2603D7D1DE0EF690D5E374FC04523C466C96073 PUSH2 0x140 DUP3 ADD MSTORE PUSH32 0x26B72F85123D953C8C5BB547A9B2494ABB1A798845EAFD90338107D53D895423 PUSH2 0x160 DUP3 ADD MSTORE PUSH1 0x0 DUP7 ADD MLOAD PUSH2 0x180 DUP3 ADD MSTORE PUSH1 0x20 PUSH1 0x0 ADD DUP7 ADD MLOAD PUSH2 0x1A0 DUP3 ADD MSTORE PUSH32 0x198E9393920D483A7260BFB731FB5D25F1AA493335A9E71297E485B7AEF312C2 PUSH2 0x1C0 DUP3 ADD MSTORE PUSH32 0x1800DEEF121F1E76426A00665E5C4479674322D4F75EDADD46DEBD5CD992F6ED PUSH2 0x1E0 DUP3 ADD MSTORE PUSH32 0x90689D0585FF075EC9E99AD690C3395BC4B313370B38EF355ACDADCD122975B PUSH2 0x200 DUP3 ADD MSTORE PUSH32 0x12C85EA5DB8C6DEB4AAB71808DCB408FE3D1E7690C43D37B4CE6CC0166FA7DAA PUSH2 0x220 DUP3 ADD MSTORE DUP5 CALLDATALOAD PUSH2 0x240 DUP3 ADD MSTORE PUSH1 0x20 DUP6 ADD CALLDATALOAD PUSH2 0x260 DUP3 ADD MSTORE PUSH32 0x2A1046CF456B267CAEF69BB0CAAE31469F800F95E8A9902677048C8F040146EA PUSH2 0x280 DUP3 ADD MSTORE PUSH32 0x707D96A2835EC1C531A9AF25BE58AC995568378053CEF7F9B7416E45D87F4B9 PUSH2 0x2A0 DUP3 ADD MSTORE PUSH32 0x1FDD91FE4A9D1BE39DE33FDA7B8332FA459A55E67283DE7DA1C287074FD11A87 PUSH2 0x2C0 DUP3 ADD MSTORE PUSH32 0x5C26DF44DA4196AEAA9731E45DD0AC37B25684C0D8D8FA985E474A123086C8F PUSH2 0x2E0 DUP3 ADD MSTORE PUSH1 0x20 DUP2 PUSH2 0x300 DUP4 PUSH1 0x8 PUSH2 0x7D0 GAS SUB STATICCALL SWAP1 MLOAD AND SWAP6 SWAP5 POP POP POP POP POP JUMP JUMPDEST PUSH1 0x40 MLOAD PUSH2 0x380 DUP2 ADD PUSH1 0x40 MSTORE PUSH2 0x3A7 DUP2 DUP6 DUP8 DUP10 PUSH2 0x5E JUMP JUMPDEST SWAP1 POP DUP1 PUSH1 0x0 MSTORE PUSH1 0x20 PUSH1 0x0 RETURN JUMPDEST DUP1 PUSH1 0x40 DUP2 ADD DUP4 LT ISZERO PUSH2 0x3C4 JUMPI PUSH1 0x0 DUP1 REVERT JUMPDEST SWAP3 SWAP2 POP POP JUMP JUMPDEST PUSH4 0x4E487B71 PUSH1 0xE0 SHL PUSH1 0x0 MSTORE PUSH1 0x41 PUSH1 0x4 MSTORE PUSH1 0x24 PUSH1 0x0 REVERT JUMPDEST PUSH1 0x0 DUP1 PUSH1 0x0 DUP1 PUSH2 0x120 DUP6 DUP8 SUB SLT ISZERO PUSH2 0x3F7 JUMPI PUSH1 0x0 DUP1 REVERT JUMPDEST PUSH2 0x401 DUP7 DUP7 PUSH2 0x3B3 JUMP JUMPDEST SWAP4 POP PUSH1 0xC0 DUP6 ADD DUP7 DUP2 GT ISZERO PUSH2 0x414 JUMPI PUSH1 0x0 DUP1 REVERT JUMPDEST PUSH1 0x40 DUP7 ADD SWAP4 POP PUSH2 0x424 DUP8 DUP3 PUSH2 0x3B3 JUMP JUMPDEST SWAP3 POP POP PUSH2 0x100 DUP6 ADD CALLDATALOAD PUSH8 0xFFFFFFFFFFFFFFFF DUP1 DUP3 GT ISZERO PUSH2 0x443 JUMPI PUSH1 0x0 DUP1 REVERT JUMPDEST DUP2 DUP8 ADD SWAP2 POP DUP8 PUSH1 0x1F DUP4 ADD SLT PUSH2 0x457 JUMPI PUSH1 0x0 DUP1 REVERT JUMPDEST DUP2 CALLDATALOAD PUSH1 0x20 DUP3 DUP3 GT ISZERO PUSH2 0x46B JUMPI PUSH2 0x46B PUSH2 0x3CA JUMP JUMPDEST DUP2 PUSH1 0x5 SHL PUSH1 0x40 MLOAD PUSH1 0x1F NOT PUSH1 0x3F DUP4 ADD AND DUP2 ADD DUP2 DUP2 LT DUP7 DUP3 GT OR ISZERO PUSH2 0x490 JUMPI PUSH2 0x490 PUSH2 0x3CA JUMP JUMPDEST PUSH1 0x40 MSTORE SWAP3 DUP4 MSTORE PUSH1 0x20 DUP1 DUP5 ADD SWAP5 POP DUP6 DUP3 ADD ADD SWAP3 DUP12 DUP5 GT ISZERO PUSH2 0x4AF JUMPI PUSH1 0x0 DUP1 REVERT JUMPDEST PUSH1 0x20 DUP7 ADD SWAP6 POP JUMPDEST DUP4 DUP7 LT ISZERO PUSH2 0x4CF JUMPI DUP6 CALLDATALOAD DUP6 MSTORE SWAP5 DUP3 ADD SWAP5 SWAP4 DUP3 ADD SWAP4 PUSH2 0x4B6 JUMP JUMPDEST SWAP9 SWAP12 SWAP8 SWAP11 POP SWAP6 SWAP9 POP POP POP POP POP POP POP JUMP INVALID LOG2 PUSH5 0x6970667358 0x22 SLT KECCAK256 0x2F GAS PUSH32 0xE3D047307B4A1ED34A80DF865A906E54D6F4B4D3645DD0EC68222902F64736F PUSH13 0x63430008180033000000000000 "},"methodIdentifiers":{"verifyProof(uint256[2],uint256[2][2],uint256[2],uint256[])":"c32e370e"}}}}}